:020000040000FA
:100000001124669A26E030E408C000000197E9F761
:100010008DB183278DB9215019F081E091E7F6CF9A
:1000200080911F138B3E69F48FEF80931F138DE92E
:1000300093E084BF909300108091021081FDFCCF6B
:1000400006C082E080930110E0E0F1E0099580ECC9
:1000500080930608A09123110A2E000CBB0BBC5FF5
:100060002CE530E00E9476007E5F8F4F9F4F2AE0A4
:1000700095958795779567952A95D1F760930808A8
:10008000709309088091E20581608093E205049AEB
:10009000E0E0F2E42DE933E040E41EC08091040882
:1000A00087FFFCCF80910008E11552E4F50711F4B9
:1000B000882391F0809302088193CF018F7799274D
:1000C000892B51F424BF309300108091021080FDE1
:1000D000FCCF8DB184278DB9CF0190548115904C00
:1000E000E8F288ED91E084BF909341000E947D008A
:1000F000B7FF0895821B930B0895A29FB001B39F91
:10010000C001A39F700D811D1124911DB29F700D20
:08011000811D1124911D0895C9
:100200000C9452010C947A010C947A010C947A01AA
:100210000C947A010C947A010C947A010C947A0172
:100220000C947A010C947A010C947A010C947A0162
:100230000C947A010C947A010C9493230C9444242A
:100240000C947A010C947A010C947A010C947A0142
:100250000C947A010C947A010C947A010C947A0132
:100260000C947A010C947A010C947A010C947A0122
:100270000C947A010C947A010C947A010C947A0112
:100280000C947A010C947A010C947A010C947A0102
:100290000C94C0220C944A230C9424230C947A01CD
:1002A00011255C2911241FBECFEFCDBFDFE3DEBFD8
:1002B0002BE2A4E2B8E201C01D92A536B207E1F735
:1002C00018E2A0E0B8E2E1EDF3E602C005900D927D
:1002D000A432B107D9F711E0C1E5D1E004C02197FC
:1002E000FE010E944E2BC035D107C9F70E943A2665
:1002F0000C943A300C9400010F931F93CF93DF932B
:10030000EC018A0189819A81DC01ED91FC910280E6
:10031000F381E02D09950817190761F489819A8105
:10032000DC01ED91FC91008CF18DE02D61E00995EF
:1003300091E0811190E0892FDF91CF911F910F9172
:100340000895FC0154894589252F30E0842F90E0E1
:10035000821B930B541710F0CF96089501970895C0
:10036000FC0192898389981761F0A389AE0FBF2F92
:10037000B11D59968C9193899F5F9F73938B90E0E9
:1003800008958FEF9FEF0895FC0192898389981754
:1003900031F08389E80FF11D818D90E008958FEF92
:1003A0009FEF0895FC0192892389892F90E0805C5A
:1003B0009F4F821B91098F7399270895CF93DF93E5
:1003C000EC01E881F9810680F781E02D0995EC8543
:1003D000FD8586818F738683EC85FD8585818F758C
:1003E00085838B898A8B198ADF91CF910895CF936A
:1003F000DF93FC0194898589C485D585981306C04F
:100400008D818F7D8D83DF91CF910895A589AE0F6A
:10041000BF2FB11DA75ABF4F2C91858990E001963F
:100420008F739927858B80E48C83A485B58512967C
:100430002C93948985899813E6CFA485B585159664
:100440008C9115978F7D15968C9387898823D9F287
:10045000808D80931301178AD6CFDC011C96ED9115
:10046000FC910FB607FE03C0258125FD04C0248141
:1004700025FD0C94F7010895EF92FF920F931F93BF
:10048000CF93DF93EC0181E0898B9C898D89981350
:100490001CC0AC85BD8514968C91149785FF15C042
:1004A00012966C93AC85BD8580E414968C93EC8594
:1004B000FD8585818F7D858381E090E0DF91CF91FF
:1004C0001F910F91FF90EF9008958091110180FF8F
:1004D00008C080911301888F8E898093130181E079
:1004E0008F8BF62E0C8910E00F5F1F4F0F731127B3
:1004F000E02E8D898E1104C0CE010E942D02F9CF0D
:10050000EC89EC0FFD2FF11DE75AFF4FF0820C8BA9
:10051000EC85FD8585818062CECFCF93DF93FC0192
:1005200021892223C9F0EC018091110180FF08C0CC
:1005300080911301808F86898093130181E0878BDE
:10054000EC85FD85858185FD03C0848186FD04C021
:10055000CE010E942D02F4CFDF91CF910895CF9369
:10056000DF9390E0FC01E456FE4520812F3F71F0BF
:10057000FC01ED58FE45A08130E2A39FD00111247B
:10058000BC5F6130710529F411962C93DF91CF91F6
:100590000895865B9E45EC01E881EF3F89F0CD012F
:1005A0004096E80FF92FF11D9FB7F89412962C93FF
:1005B00080816230710539F4886080839FBFE6CF07
:1005C000F0E0E0E0F1CF877FF8CF282F30E0F901AD
:1005D000EF5DFE45E081EE2309F1E13021F0F0F01E
:1005E000E63098F008954091010A265B3E45F901F6
:1005F00020812C5F81E090E001C0880F2A95EAF706
:10060000809584238093010A089580E1E89FF0019A
:100610001124E05AF54F81818F7E81830895FF92E6
:100620000F931F93CF93DF93082F10E0F801E45648
:10063000FE45F0809FEFF916A1F0EB01893210F42E
:100640000E94E502F801ED58FE45E08180E2E89F56
:10065000F0011124FC5F80818F2159F0CD2B39F4FA
:10066000F682DF91CF911F910F91FF900895F5824F
:10067000F8CFD801A65BBE458C91309771F08F3FC3
:1006800061F07096E80FF11D9FB7F8948081CD2B33
:1006900039F4877F80839FBFE4CFF0E0E0E0F4CFC0
:1006A0008860F8CF0F931F93CF93082F10E0F801C5
:1006B000E456FE45C081CF3FB9F0893210F40E9464
:1006C000E502F801ED58FE45E08180E2E89FF00187
:1006D0001124FC5F8085C82381E090E009F480E06C
:1006E000CF911F910F91089580E090E0F9CF89326A
:1006F00010F40C940F030895893210F40C94AF0297
:100700000895CF92DF92EF92FF920F931F93CF93B2
:10071000DF93EC016A017B01022F8989882339F07C
:10072000E881F9810288F389E02DCE010995988945
:100730008091E205892B8093E2051FB7F89460E071
:1007400070E281EA97E0A70196010E940D2B6901F2
:100750007A018FEFC81AD80AE80AF80AF694E794E3
:10076000D794C794EC85FD8586818D7F8683EC8543
:10077000FD8586818683198AA09123110A2E000C9B
:10078000BB0BA70196010E94542B20E034E040E00F
:1007900050E00E942F2BEC85FD85C20ED31EE41E77
:1007A000F51EC086D186EC85FD850783EC85FD8529
:1007B0008681806C8683EC85FD8585818068858354
:1007C0008E8562E070E00E947C038F8561E070E0BE
:1007D0000E9477038F8561E070E00E947C031FBF59
:1007E000DF91CF911F910F91FF90EF90DF90CF900D
:1007F0000895863018F08E508730A0F48093060656
:1008000081E08093080680910B0680FFFCCF2FB714
:10081000F89490911006809111062FBF8927982790
:10082000892708958FEF90E00895CF93DF938FB7D6
:10083000F89420916A2930916B2940916C2950914C
:100840006D29E091BA0A9091B60A90FF06C02F5F19
:100850003F4F4F4F5F4FE091BA0A8FBFA091682979
:10086000B0916929C0916629D09167290E94062A12
:10087000EC9F9001ED9F300D1124620F731F811DBD
:10088000911DDF91CF9108958F929F92AF92BF9269
:10089000CF92DF92EF92FF924B015C010E94150410
:1008A0006B017C01A8EEB3E0A50194010E94062A29
:1008B000C60ED71EE81EF91EC616D706E806F906AC
:1008C00018F40E941504F8CF0E9415046C157D05DC
:1008D0008E059F05C8F3FF90EF90DF90CF90BF90FB
:1008E000AF909F908F9008952FB7F89460916229F0
:1008F0007091632980916429909165292FBF089593
:10090000DC01ED91FC910190F081E02D0994AF9212
:10091000BF92CF92DF92EF92FF920F931F93CF93EC
:10092000DF936C017B018B01040F151FEB015E014E
:10093000AE18BF08C017D10759F06991D601ED91E3
:10094000FC910190F081E02DC6010995892B79F782
:10095000C501DF91CF911F910F91FF90EF90DF9034
:10096000CF90BF90AF90089581E008950895EF92E1
:10097000FF920F931F93CF93DF937C01EB018B01C9
:10098000040F151FC017D10759F0D701ED91FC9145
:100990000480F581E02D6881C70109958993F2CF24
:1009A000DF91CF911F910F91FF90EF9008950F93DA
:1009B0001F93CF93DF93EC018B018091C008E881F6
:1009C000F9810480F581E02D86FD13C0612FCE01F1
:1009D0000995182FE881F9810480F581E02D602FB9
:1009E000CE010995082FC801DF91CF911F910F917A
:1009F0000895CE010995082FE881F9810480F581D9
:100A0000E02D612FCE010995182FEDCF00006093E6
:100A1000C4088091C30887FFFCCF8091C408089563
:100A20008F929F92AF92BF92CF92DF92EF92FF92FE
:100A30000F931F93CF93DF93FC018085882319F0D8
:100A400081FF0EC07894DF91CF911F910F91FF909D
:100A5000EF90DF90CF90BF90AF909F908F900895D0
:100A600080FFF1CF82849384A484B584C12CD12CDF
:100A7000760110E09401A501B601C701A0E00E9433
:100A8000792B99F1217030E040E050E060E070E0B7
:100A900080E090E00E94792BD9F0D0E0C0E01033E4
:100AA00070F4C12FC695C695C69580E2C89FE00137
:100AB0001124C05FDB4F812F8770C80FD11DCF017C
:100AC000810F911DDC0152968C919881892B88832E
:100AD0009401A501B601C70101E00E945E2B490106
:100AE0005A016B017C011F5FC5CF86849784A08863
:100AF000B188C12CD12C760110E29401A501B60178
:100B0000C701A0E00E94792B09F49DCF217030E04D
:100B100040E050E060E070E080E090E00E94792BDF
:100B2000D9F0D0E0C0E0103370F4C12FC695C6955F
:100B3000C695B0E2CB9FE0011124C05FDB4F812F4F
:100B40008770C80FD11DCF01810F911DDC01529616
:100B50008C919881892B88839401A501B601C701E6
:100B600001E00E945E2B49015A016B017C011F5F6D
:100B7000C4CFFC016F3F710581F1808581FD2DC0DF
:100B8000603271055CF581E090E002C0880F991F2A
:100B90006A95E2F780959095092E000CAA0BBB0B85
:100BA000428553856485758584239523A623B723C1
:100BB00082879387A487B58782859385A485B58529
:100BC000892B8A2B8B2B49F486859785A089B1893F
:100BD000892B8A2B8B2B09F410860895605271099A
:100BE00081E090E002C0880F991F6A95E2F7809536
:100BF0009095092E000CAA0BBB0B46855785608982
:100C0000718984239523A623B72386879787A08B92
:100C1000B18BD2CFFC016F3F7105E9F160337105F3
:100C20001CF082E080870895808581608087603233
:100C30007105C4F481E090E002C0880F991F6A95A5
:100C4000E2F7092E000CAA0BBB0B42855385648585
:100C50007585842B952BA62BB72B82879387A4872A
:100C6000B58708956052710981E090E002C0880F55
:100C7000991F6A95E2F7092E000CAA0BBB0B46855B
:100C8000578560897189842B952BA62BB72B868776
:100C90009787A08BB18B0895E0ECF8E020812E7F40
:100CA0002083FC0117820895E0ECF8E082818E7FBA
:100CB00082830895E0ECF8E0828181608283089568
:100CC0000F9391E090934B2910924A296093482901
:100CD000709349294093472920934629109245292A
:100CE0001092442900934329880F8093422923E0DE
:100CF00030E044E050E080914729882341F0209380
:100D0000402930934129809142298E7F0BC08091E8
:100D10004629882351F040934029509341298091DE
:100D2000422981608093A70808C0809147298111DA
:100D300004C080914629882311F380914A29882391
:100D4000E1F380914A298330B1F2809146298823CA
:100D500021F0809144290F91089580914A29823091
:100D600031F0853031F0813031F480E0F4CF81E032
:100D7000F2CF83E0F0CF84E0EECFE0EAF8E09185B7
:100D80009066918722E030E02093402930934129FA
:100D90008093322910923129089581E0809331297E
:100DA0001092322993E09093AA089091AB0891FF9A
:100DB00010C010923E29E0912F29F0913029099519
:100DC00080933D2985E090E08093402990934129CC
:100DD000089510923F2980933C2986E090E0F4CF5B
:100DE0008F929F92AF92BF92CF92DF92EF92FF923B
:100DF000CF93DF9360342DE0720723E082079105E3
:100E000008F454C0611525E372072CE082079105B0
:100E100008F445C060387F448241910508F046C01F
:100E2000C8E7D0E020E432E44FE050E080900328AF
:100E300090900428A0900528B0900628C501B40120
:100E40000E940D2B69017A018AE0C81AD108E108D5
:100E5000F108C501B40120E432E44FE050E00E9403
:100E60000D2BDE010E94062A28EE33E040E050E020
:100E70000E940D2BC21AD30AE40AF50AF694E794ED
:100E8000D794C794C092A608DF91CF91FF90EF90BE
:100E9000DF90CF90BF90AF909F908F900895CCE25D
:100EA000D1E020E83AE146E050E0C0CFC8EED3E020
:100EB00020EA36E841E050E0B9CF60932D297093E5
:100EC0002E29089560932B2970932C290895E09181
:100ED0002D29F0912E29309741F010922A29109255
:100EE0002929099580912929089580E00895E091A4
:100EF0002B29F0912C29309759F0309128292091F5
:100F00002729321728F0109228298093272909943D
:100F100008950895E091282980912729E81730F451
:100F2000F0E0E955F74D808190E008958FEF9FEF55
:100F3000089590912829809127292FEF3FEF981746
:100F400048F4E92FF0E0E955F74D208130E09F5F4C
:100F500090932829C90108958091272990912829E3
:100F6000891B990B0895CF92DF92EF92FF920F9316
:100F70001F93CF93DF937C018A01EB016B01C40EB9
:100F8000D51ECC15DD0551F06991D701ED91FC918D
:100F90000190F081E02DC7010995F3CFC801DF91E1
:100FA000CF911F910F91FF90EF90DF90CF90089518
:100FB0002091292927FF08C021E030E0FC0122838D
:100FC000338390E080E0089580912A29E82FF0E0B3
:100FD000E95DF74D60838F5F80932A2980932929EB
:100FE00081E090E00895DC01ED91FC91008CF18DA1
:100FF000E02D61E009940F9380914029909141295F
:101000000197A1F480914B29811112C0062F20E095
:101010004091292967E278E2809126280E946006A3
:1010200010922A29109229290F91089580E0F8CF73
:1010300081E0F6CF6093262810922A291092292960
:101040000895DC01ED91FC91048CF58DE02D21E0FB
:1010500009940F9387EA98E2809333299093342977
:1010600080914029909141290197C9F480914B29A1
:10107000811117C0FA014138510510F0E0E8F0E0A5
:10108000022F862F2E2F40E070E060E00E94600665
:10109000109228298093272990E00F91089580E0ED
:1010A000F7CF81E0F5CFCB01BA010C94F006E0EA6E
:1010B000F8E01382168281E08583148611861092EF
:1010C0004029109241290895109228291092272929
:1010D00010922A2910922929809140299091412922
:1010E000892BD9F482E090E08093402990934129A4
:1010F00010923F2910923E291092312910923229E4
:101100001092252810923C29660F6093AC0881EE5E
:101110008093A90881E08093A30887E697E08093F5
:101120002F299093302987E298E280933529909374
:10113000362987E797E080933A2990933B2987EAFD
:1011400098E2809337299093382980E88093392951
:101150000895109228291092272910922A29109276
:1011600029298091402990914129892BF1F480917E
:10117000E3058093E30581E090E08093402990931C
:101180004129109244291092452910924B2910921E
:101190004A2981EC8093A30860EA76E881E090E038
:1011A0000E94F00681E08093A5080895CF93DF9315
:1011B000EC018B818823D1F089819A81DC01ED914A
:1011C000FC910688F789E02D6881099589819A81CB
:1011D000DC01ED91FC91028CF38DE02D099591E0FD
:1011E000811190E0892FDF91CF91089589819A81B3
:1011F000DC01ED91FC910684F785E02D099581E0F5
:101200008B83CE010E94D608982F8111D5CFEACFCB
:1012100008950895CF92DF92EF92FF92CF93C82F57
:101220000E9474046B017C01809102288932C8F409
:101230000E945203892BA9F0CC23B1F30E947404BD
:101240006C197D098E099F096031774281059105EE
:1012500058F7E091802AF091812A309729F3099577
:10126000E3CFCF91FF90EF90DF90CF900895CF9391
:10127000DF931F92CDB7DEB78983698182E39AE25B
:101280000F90DF91CF910C940605CF93DF93D82F69
:10129000C62F80EE0E9437098D2F0E9437098C2FB0
:1012A0000E943709C11105C08EEEDF91CF910C94D9
:1012B0003709DF91CF910895DF92EF92FF920F935C
:1012C0001F93CF93DF93D82EE92E8B01F42E812F1D
:1012D0000E943709802F0E943709CD2DDE2D0C0F7B
:1012E0001D1FC017D10721F089910E943709F9CF3E
:1012F00081E0F8120AC08EEEDF91CF911F910F911D
:10130000FF90EF90DF900C943709DF91CF911F9100
:101310000F91FF90EF90DF900895DF92EF92FF9290
:101320000F931F93CF93DF937C01C62FD42E862F6C
:101330000E9437098701D0E0C8018E199F098C17D8
:101340009D0734F4F80181918F010E943709F4CF91
:10135000F1E0DF120AC08EEEDF91CF911F910F9165
:10136000FF90EF90DF900C943709DF91CF911F91A0
:101370000F91FF90EF90DF900895CF93DF93EC01F2
:101380008FEF0E9437098883DF91CF910895CF9323
:10139000DF931F92CDB7DEB71982CE0101960E946E
:1013A000BD0989810F90DF91CF910895CF93DF938D
:1013B000C9EED3E00E94C7098F3E69F0219711F072
:1013C000803EC1F721E090E0803E09F020E0822FCE
:1013D000DF91CF9108958FEF9FEFFACFCF92DF92F9
:1013E000EF92FF920F931F93CF93DF931F92CDB78E
:1013F000DEB7182F6B017A0119820E94D609892B5A
:1014000061F490E080E00F90DF91CF911F910F91F8
:10141000FF90EF90DF90CF900895CE0101960E944B
:10142000BD09106889811813ECCFCE0101960E9486
:10143000BD098981813029F78FEF0E943709F701B3
:10144000808310E000E0F70180818017110649F0E9
:1014500044F0C601800F911F0E94BD090F5F1F4F0E
:10146000F2CFCE0101960E94BD0981E090E0CBCF82
:1014700061E070E0809101280E94770382E39AE2A4
:101480000C94100521E0FC0184858F3F09F420E0D5
:10149000822F0895FC0167870895CF93DF931F92F1
:1014A000CDB7DEB76983DC01ED91FC910280F38159
:1014B000E02D41E050E0BE016F5F7F4F09950F9036
:1014C000DF91CF910895DC011C968D919C91DC01F8
:1014D000ED91FC910280F381E02D0994DC011C96D2
:1014E0008D919C91DC01ED91FC910084F185E02DC2
:1014F0000994DC011C968D919C91DC01ED91FC918D
:101500000688F789E02D0994CF93DF93EC01CF593A
:10151000DF4F48815981FC01E15AFF4F60817181A1
:101520000E94630A21E030E0488159814817590739
:1015300011F030E020E018821982C901DF91CF91CB
:10154000089581E00895CF93DF93EC010E94790A1A
:10155000882321F08FA5DF91CF91089580E0FBCF04
:10156000DC01D2962D913C91D3972630310551F470
:101570001C968D919C91DC01ED91FC910484F58584
:10158000E02D09948FEF9FEF0895CF93DF931F9283
:10159000CDB7DEB7DC01ED91FC910288F389E02D37
:1015A00041E050E0BE016F5F7F4F0995019731F434
:1015B000898190E00F90DF91CF9108958FEF9FEF99
:1015C000F9CFFC0122A933A92630310519F486A9E7
:1015D00097A9089590E080E00895CF93DF931F923C
:1015E000CDB7DEB76983DC01ED91FC910280F38118
:1015F000E02D41E050E0BE016F5F7F4F09950F90F5
:10160000DF91CF91089590E080E00895DC01ED91A5
:10161000FC910088F189E02D23E030E00994CF931C
:10162000DF93EC0188819981009711F00E94212CB1
:10163000188219821C821D821A821B82DF91CF912F
:101640000895FC0180819181009711F00C94212C68
:1016500008950C94212C0C94212C0C94212C0F9384
:101660001F93CF93DF93EC018BE492EA88839983F5
:101670008E0104591F4FF80180819181009729F054
:101680000E94212CF801108211828E010C591F4FEB
:10169000F80180819181009729F00E94212CF801A6
:1016A00010821182CE018C5A9F4F0E94210BCE01D5
:1016B000CE960E94210BCE014C960E94210BCE01AA
:1016C00046960E94210BCE014096DF91CF911F914B
:1016D0000F910C94210BCF93DF93EC010E942F0B01
:1016E000CE01DF91CF910C94212C4F925F926F929B
:1016F0007F928F929F92AF92BF92CF92DF92EF92A2
:10170000FF920F931F93CF93DF93CDB7DEB726974A
:10171000CDBFDEBF6C01B62E8E010F5F1F4F86E07E
:10172000D8011D928A95E9F7F601E288F388D7017E
:1017300014968D919C911597892B91F011968D910E
:101740009C91DC01ED91FC910688F789E02DD70191
:101750006C91099541E050E0B801C7010E947C01FD
:101760006AE070E080E090E00E94440483E08983B6
:10177000BA8282E08B83F601E288F388D70114965F
:101780008D919C911597039790F011968D919C9156
:10179000DC01ED91FC910688F789E02DD7016C9171
:1017A000099543E050E0B801C7010E947C0162E066
:1017B00070E080E090E00E944404F6016288738843
:1017C000D12CC12C86E0882E912CD30114968D91BA
:1017D0009C917401EC18FD088E159F0508F47C019E
:1017E000F3018181928121E0A4014E195F09C416A1
:1017F000D50608F420E0DC01ED91FC91048CF58D18
:10180000E02DA701D3016C910995E816F906F9F4CA
:101810005801AC0CBD1C2501C501841995098E1514
:101820009F0570F4F30181819281DC01ED91FC91BF
:101830000284F385E02D0995F50181935F01ECCFDA
:10184000CE0CDF1CF6E0CF16D10408F4BECF8981A0
:101850008330E1F58A818230C9F54D815E81F801DE
:10186000BE016B5F7F4F8FEF9FEF2191822728E0B2
:1018700030E0DC01A170BB2796958795AB2B21F05A
:10188000A1E08A27A0EA9A272150310991F7E617AB
:10189000F70759F748175907C9F48B819C81982796
:1018A000892798272696CDBFDEBFDF91CF911F9164
:1018B0000F91FF90EF90DF90CF90BF90AF909F90EF
:1018C0008F907F906F905F904F9008958FEF9FEF74
:1018D000E9CF62E00E94750B8F3F9807C9F097FF30
:1018E00012C09F7766277727681B790B072E000C9D
:1018F000880B990B0E947A2920E030E040E251E405
:101900000E94512A0895BC01990F880B990BF2CFC0
:1019100060E070E080EC9FE708950F931F93CF93F2
:10192000DF938C01EB01FB01349680E2DF011D9215
:101930008A95E9F784E290E0A0E0B0E0888399839B
:10194000AA83BB83F80185819681A781B0858C83AA
:101950009D83AE83BF838CE090E0A0E0B0E08887F9
:101960009987AA87BB870E947404688B798B8A8BBE
:101970009B8B60E0D80113968D919C910E94750B12
:101980008F3F9807A9F0BC0190E080E00E94782981
:1019900020E030E040E251E40E94512A6C8B7D8BC4
:1019A0008E8B9F8B81E0DF91CF911F910F910895D6
:1019B00060E070E080EC9FE7F1CF0F931F93CF932F
:1019C000DF938C01EB01FB01349680E2DF011D9275
:1019D0008A95E9F784E290E0A0E0B0E088839983FB
:1019E000AA83BB83F80185819681A781B0858C830A
:1019F0009D83AE83BF838DE090E0A0E0B0E0888758
:101A00009987AA87BB870E947404688B798B8A8B1D
:101A10009B8BD80113968D919C910E94690C6C8BC5
:101A20007D8B8E8B9F8B81E0DF91CF911F910F91EA
:101A30000895FB0101900020E9F73197AF01461BA3
:101A4000570BDC01ED91FC910280F381E02D0994AC
:101A50008F929F92AF92BF92EF92FF920F931F933C
:101A6000CF93DF93CDB7DEB7A197CDBFDEBF7C01AB
:101A7000FA01CB0119A2223008F42AE08E010F5D91
:101A80001F4F822E912CB12CA12CBF01A5019401D6
:101A90000E940D2BF901CA016A30F4F4605DD8018F
:101AA0006E938D01232B242B252B79F790E080E07A
:101AB000109721F0BD01C7010E94190DA196CDBF5D
:101AC000DEBFDF91CF911F910F91FF90EF90BF90FC
:101AD000AF909F908F900895695CE1CFCF92DF9295
:101AE000EF92FF920F931F93CF93DF936B01770FCA
:101AF000EE08FF08F7FE1BC0EC016DE20E948004B7
:101B00008C0144275527BA014C195D096E097F09DC
:101B10002AE0CE010E94280D800F911FDF91CF9106
:101B20001F910F91FF90EF90DF90CF9008952AE0E2
:101B3000B701A601DF91CF911F910F91FF90EF9018
:101B4000DF90CF900C94280D2F923F924F925F928E
:101B50006F927F928F929F92AF92BF92CF92DF92BD
:101B6000EF92FF920F931F93CF93DF9300D01F92BA
:101B7000CDB7DEB78A839B834B01FC0182899389B1
:101B8000019709F0CEC08F0144244A9431E090E0DF
:101B90008FEF20E042814111B0C043814111ADC0BF
:101BA0009F5F8F3F11F4822F91E0391714F4392F82
:101BB000482E32962F5F283069F71A821B82D12C6B
:101BC000C12CA42C042C000CBB083501630E711C25
:101BD00037FD7A94CA14DB0424F0C614D7040CF43D
:101BE00090C0F8018281682F70E094E07595679548
:101BF0009A95E1F7362E8F70582E8381E82EF12CBE
:101C000024E0F594E7942A95E1F72E2C8F708983D0
:101C1000662309F4B7C0F9E0F61708F470C0605DF8
:101C2000C4010E9480042A813B81280F391F2A8326
:101C30003B8339E060E3351508F467E5650DC401C1
:101C40000E948004EA81FB81E80FF91FEA83FB838D
:101C5000311004C0511002C0222079F0F9E060E395
:101C6000F21508F467E56E0DC4010E9480042A8114
:101C70003B81280F391F2A833B833981632F605DA5
:101C80003A3010F06981695AC4010E948004EA81E7
:101C9000FB81E80FF91FEA83FB83F7E0CF16D1043D
:101CA00051F06AE3C4010E9480042A813B81280F1D
:101CB000391F2A833B833FEFC31AD30A0E5F1F4F9E
:101CC00088E0C816D10409F085CF8A819B812396CC
:101CD000CDBFDEBFDF91CF911F910F91FF90EF90AD
:101CE000DF90CF90BF90AF909F908F907F906F903C
:101CF0005F904F903F902F9008958FEF5ACF695A81
:101D00008FCFAC14BD04B9F64110CBCF6AE3C40148
:101D10000E948004EA81FB81E80FF91FEA83FB83BC
:101D2000C0CFEA80FB80EEE0EE0EF11CAA80BB8003
:101D3000F1E1AF0EB11C10E000E0F70141917F012D
:101D400050E070E060E02AE0C4010E94280D6C01C0
:101D50006EE2C4010E9480048C0D9D1D080F191FA6
:101D6000AE14BF0451F7EA81FB81418950E070E075
:101D700060E02AE0C4010E94280D800F911F8A8331
:101D80009B83A3CF511055CF67CFBC0187E999E260
:101D90000C94190D67E972EA0C94190DCF93DF9337
:101DA000BC0187E999E20E946E0DEC0187E999E296
:101DB0000E94CA0E8C0F9D1FDF91CF9108950F9343
:101DC0001F93CF93DF93EC010E94190D8C01CE017C
:101DD0000E94CA0E800F911FDF91CF911F910F912A
:101DE00008950F931F93CF93DF938A01FC01E15A6B
:101DF000FF4FEC01CF59DF4F2081318188819981DC
:101E0000820F931F0E94742D88819981800F911FEA
:101E100088839983C801DF91CF911F910F91089515
:101E2000CF93DF9300D0CDB7DEB77627672776272D
:101E300069837A8342E050E0BE016F5F7F4F0E946A
:101E4000F10E0F900F90DF91CF910895CF92DF9216
:101E5000EF92FF920F931F93CF93DF93EC016B01EF
:101E60008A01BA010E94100F7C01A801B601CE01BF
:101E70000E94F10E8E0D9F1DDF91CF911F910F914A
:101E8000FF90EF90DF90CF900895CF92DF92EF9286
:101E9000FF920F931F93CF93DF931F92CDB7DEB7BF
:101EA00079016C012FE5C20ED11CD6010D931C9354
:101EB0008C010F591F4FF80110821182F0E16F9FC2
:101EC000B0011124462B498341E050E0BE016F5F11
:101ED0007F4F0E94F10E8E2D8F77EE0CEF2CEE1CB3
:101EE000FF08F194E114F10409F08068D601ED9146
:101EF000FC91D8012D913C911197A9014F5F5F4F43
:101F00004D935C931197E20FF31F8083E114F1046A
:101F100011F78D919C910F90DF91CF911F910F91AF
:101F2000FF90EF90DF90CF900895CF92DF92EF92E5
:101F3000FF920F931F93CF93DF93CDB7DEB7BC0112
:101F4000CDB6DEB69091F92A933008F05CC0E090EF
:101F5000F62AF090F72A9701911144C02E5F3F4F67
:101F6000A9014B5F5F4FEDB7FEB7E41BF50BEDBF6B
:101F7000FEBF0DB71EB70F5F1F4F4091F82A992380
:101F800011F0990F492B8091FA2A81114860260F90
:101F9000371F63E08EE99AE20E94450F6091F22AB2
:101FA0007091F32AA7018EE99AE20E94260F809190
:101FB000F92A882341F06091FB2A7091FC2A8EE96E
:101FC0009AE20E94100F8EE99AE20E94840ACDBE26
:101FD000DEBEDF91CF911F910F91FF90EF90DF90C8
:101FE000CF9008952C5F3F4F4091FB2A5091FC2ADF
:101FF0004F5F5F4F29F04093FB2A5093FC2AB0CFEC
:1020000041E050E0F8CF90E080E0E1CFCF92DF9266
:10201000EF92FF920F931F93CF93DF9300D000D0E6
:10202000CDB7DEB77C01FC01E95BFF4F80818130D9
:1020300001F53296C080D1808E010F5F1F4F22E0E4
:1020400030E040E064E0C7010E94450FB601C701DF
:102050000E94100FC7010E94840A2496CDBFDEBFE4
:10206000DF91CF911F910F91FF90EF90DF90CF9074
:102070000895823091F7F701E75BFF4FC080D18070
:102080008E010F5F1F4F22E030E040E065E0DBCFC4
:102090008F929F92AF92BF92CF92DF92EF92FF9278
:1020A0000F931F93CF93DF93DC01D2962D913C9138
:1020B0002630310581F010E000E0C801DF91CF91BA
:1020C0001F910F91FF90EF90DF90CF90BF90AF9056
:1020D0009F908F9008958A015B01EC01E881F9815E
:1020E0000084F185E02D09956C010817190708F4A3
:1020F0006801750110E000E00C151D05A9F00E94B3
:1021000074044B015C01CE010E946E0A892BF1F030
:102110008C859D85DC01ED91FC910284F385E02D99
:1021200009958F3F980719F50115110521F28EA920
:102130009FA9801B910B8EAB9FAB892B09F0BDCF64
:10214000CE010E9406101AAA1BAAB7CFCE010E9488
:10215000790A882349F30E947404681979098A0965
:102160009B09683E73408105910568F2DDCF0F5FE2
:102170001F4FD7018D937D01BFCFEF92FF920F9339
:102180001F93CF93DF9300D0CDB7DEB77C01DC0186
:10219000ED91FC910688F789E02D0995882369F077
:1021A0008E010F5F1F4F30E020E040E06EE0C7017E
:1021B0000E94450FC7010E94840AF70117A6848573
:1021C0009585DC01ED91FC910488F589E02D099558
:1021D0000F900F90DF91CF911F910F91FF90EF9093
:1021E0000895AF92BF92CF92DF92EF92FF920F933A
:1021F0001F93CF93DF935B018A01FC01E059FF4FEE
:1022000020813181232B61F0DF91CF911F910F91BC
:10221000FF90EF90DF90CF90BF90AF900C94F10EB5
:10222000FC01ED59FF4F2081222361F0DF91CF9116
:102230001F910F91FF90EF90DF90CF90BF90AF90E4
:102240000C94630A7C0126E6E20EF11CF701C080C3
:10225000D180FC0123A534A54C0D5D1D4217530709
:1022600018F089010C191D09EC01CC59DF4F888148
:102270009981892B29F4C9010E94852B8883998330
:1022800088819981A801B5018C0D9D1D0E94742D36
:10229000F70180819181800F911F80839183C80114
:1022A000DF91CF911F910F91FF90EF90DF90CF9032
:1022B000BF90AF9008950F931F93CF93DF93EC01DE
:1022C00088819981009759F02A813B812617370729
:1022D00030F081E0DF91CF911F910F9108958B0134
:1022E0006F5F7F4F0E94AA2C009759F088839983D3
:1022F0000A831B832C813D81232B59F7FC0110821B
:10230000E8CF80E0E7CFEF92FF920F931F93CF9338
:10231000DF93EC017B018A01BA010E945B118111FC
:102320000BC0CE010E940F0BCE01DF91CF911F9108
:102330000F91FF90EF9008950C831D83A801B701C2
:10234000888199810E94742DE881F9818C819D8119
:10235000E80FF91F1082E8CFFC0101900020E9F797
:102360003197AF01481B590BBC0182EF9AE20E94E2
:1023700083111092F82A1092F92A1092FA2A1092D8
:10238000042B1092052B1092012B81E090E0089510
:102390002F923F924F925F926F927F928F929F9275
:1023A000AF92BF92CF92DF92EF92FF920F931F9363
:1023B000CF93DF93CDB7DEB76097CDBFDEBF7C0193
:1023C0000E946E0A892B61F4C7010E94790A81116B
:1023D00007C0D701D2961D921C92D3979F961C924C
:1023E000F701E05BFF4FEF83F8876701FEE4CF0E54
:1023F000D11CC701875B9F4F89879A8757019BE450
:10240000A90EB11C2701A2E44A0E511C3701B4E405
:102410006B0E711C1701E7E42E0E311CC701835AA5
:102420009F4F8D839E83D701A35BBF4FAB87BC8734
:10243000F701ED59FF4FED87FE8741978F87988B06
:10244000C7010E946E0A892B09F4CCC0D7011C96E3
:102450008D919C91DC01ED91FC910284F385E02D3E
:1024600009958C010E947404EF81F8856083718363
:1024700082839383D701D296ED91FC91D397E83074
:10248000F10508F0A9C0E95BFD4E0C944E2B4F12EC
:1024900068123913B3130E145D149E149E14C801F0
:1024A00074E0959587957A95E1F78F709927F701F4
:1024B00084AB0F7005AB16AA17AA81E090E0A0E0EC
:1024C000B0E080AF91AFA2AFB3AF82AB93AB84C0AB
:1024D000F70180AD91ADA2ADB3AD98012F77332751
:1024E000289FA001299F500D389F500D112426A927
:1024F00037A9240F351F26AB37AB67E0880F991F2C
:10250000AA1FBB1F6A95D1F780AF91AFA2AFB3AF3F
:102510000197A042B10520F0D701ED91FC9169C16E
:1025200007FD8ECFF70184A9823041F09CEF980F10
:10253000923020F0873011F08B3059F4D701D596C6
:102540009C919111E9CF2230310531F7833039F078
:1025500029C08330E9F485A986708630E9F2F70155
:1025600085A9EA5BFF4F982F991F9927991F9083A0
:10257000282F30E0359527952370D1012C93329682
:102580008170808383E090E0F70182AB93AB21C040
:10259000863059F485A9823009F0BECF223031054A
:1025A00009F0BACF82E090E0EFCF893039F485A905
:1025B0008111B2CF23303105A9F3AECF8D3009F0B0
:1025C000ABCF85A98111A8CF232B09F0A5CF12AAE3
:1025D00013AAD6011D921C92F70182A993A906970E
:1025E00009F02ECFD7019F968C91882361F10E942C
:1025F0007404F70103A114A125A136A1E859FF4FE6
:1026000080809180A280B3802B013C01481859083A
:102610006A087B085301420180169106A206B306A0
:1026200008F49FC160837183828393838E010F5F5F
:102630001F4F30E020E040E06CE0C7010E94450FF2
:10264000C7010E94840A6096CDBFDEBFDF91CF91A3
:102650001F910F91FF90EF90DF90CF90BF90AF90C0
:102660009F908F907F906F905F904F903F902F90B2
:102670000895F601808191819C012F5F3F4F208357
:1026800031838E0D9F1DFC01E55BFF4F0083D696C5
:102690008D919C91D7972817390709F0D1CED29602
:1026A0001D921C92D397D4968C91D497823049F482
:1026B000EF85F889808190E0DC968D939C93DD977F
:1026C0008BCF9CEF980F923020F0873011F08B3039
:1026D000A1F4D5018D919C91982789279827ED81A8
:1026E000FE81208131812817390709F0A9CED70151
:1026F000DC961D921C92DD976FCF8630E9F4F501D0
:1027000080809180982489249824AD85BE858C9101
:10271000811196CE8E010F5F1F4F22E030E040E026
:1027200067E0C7010E94450FB401C7010E94100F66
:10273000C7010E94840A50CF893009F081CEF5018B
:1027400080819181982789279827AD81BE812D911D
:102750003C912817390709F073CEEB85FC85808101
:1027600090E0D701A9CFF601808191819C012F5F74
:102770003F4F208331838E0D9F1DFC01E55BFF4F92
:1027800000832230310509F05BCED5018D919C91FB
:10279000982789279827F30180839183D701D696BC
:1027A0008D919C91D7970297D6968D939C93D797AE
:1027B00050E040E069E972EA8701025C1F4FC801FE
:1027C0000E948311F30160817181C8010E945B1135
:1027D000D1014C91F70126A937A9D3018D919C9184
:1027E000442369F002962817390768F40190F081B4
:1027F000E02D0488F589E02DC701099524CF28171D
:10280000390708F489CEF6011082118284E090E045
:10281000D701D2968D939C93D397DECEF201808020
:102820009180FFEF8F1A9F0AB401C701CE960E94D4
:102830005B118823A1F0D701DE96ED91FC91D201C6
:102840008D919C911197E80FF91F00838D929C92B6
:10285000F70186AD97AD880E991ED4011C92F30145
:1028600020813181D2018D919C912817390709F07F
:10287000B3CEF70186A997A9821B930B86AB97ABC2
:10288000D1012C91222319F085E090E01ECE26E0A4
:1028900030E022AB33AB0684F785E02D309709F4A6
:1028A000A1CE0995D701D6968D919C91892B09F0DF
:1028B00093CEF70112AA13AA8FCED6018D919C91C7
:1028C00011979C012F5F3F4F2D933C938E0D9F1DC1
:1028D000FC01E55BFF4F00832230310509F0B0CDEC
:1028E000F70186A997A9029786AB97ABD5012D91E1
:1028F0003C91322723273227E985FA8520833183CB
:1029000026E030E0D701D2962D933C93D3971E96C4
:10291000ED91FC91309709F00995F70186A997A9E7
:10292000892B09F059CEC7010E940610D7011E96C7
:102930008D919C91892B09F0BCCF4ECEF70186A9D1
:1029400097A9009719F0019786AB97ABD701D69658
:102950008D919C91D797892B09F4ABCF87E090E0BC
:1029600058CFF701E05BFF4F80809180A280B38059
:10297000681979098A099B09000F111F221F331F4B
:10298000601771078207930708F45DCEC5CDCF921B
:10299000DF92EF92FF920F931F93CF93DF9300D0BC
:1029A00000D0CDB7DEB78091012B811122C080917C
:1029B000042B9091052B0E94950F892B39F48EE9F9
:1029C0009AE20E94BD1080E090E087C04091042B05
:1029D0005091052B6091022B7091032B8EE99AE2A6
:1029E0000E94630A2091042B3091052B82179307D4
:1029F00031F71092012B8091F92A882309F490C0B5
:102A00008230B1F58FEF9FEF8093DA2A9093DB2A23
:102A10000E9474046B017C010E9474046C197D098E
:102A20008E099F090091C52A1091C62A2091C72AB4
:102A30003091C82A601771078207930708F459C0BC
:102A4000E090FB2AF090FC2A8E010F5F1F4F22E0DE
:102A500030E042E066E08EE99AE20E94450FB7015D
:102A60008EE99AE20E94100F8EE99AE20E94840A8F
:102A70008FEF9FEF8093DA2A9093DB2A0E947404F1
:102A80006B017C010E9474046C197D098E099F09F9
:102A90000091C52A1091C62A2091C72A3091C82AD0
:102AA000601771078207930708F08DCF8EE99AE2CD
:102AB0000E94790A882309F486CF8EE99AE20E945F
:102AC000C8112091DA2A3091DB2A2F3F3207D1F248
:102AD00081E090E0232B09F080E02496CDBFDEBF9B
:102AE000DF91CF911F910F91FF90EF90DF90CF90EA
:102AF00008958EE99AE20E94790A882309F4A0CF0A
:102B00008EE99AE20E94C8118091DA2A9091DB2A1C
:102B10008F3F980709F480CF892B09F491CF53CFC9
:102B200081E052CF0F931F93CF93DF938C01EB0182
:102B300088E2FB0111928A95E9F74BE050E06AE9DF
:102B400072EACE010E947D2D81E090E0A0E0B0E02D
:102B50008C879D87AE87BF87F80185819681A78185
:102B6000B085888B998BAA8BBB8B8CE090E0A0E022
:102B7000B0E08C8B9D8BAE8BBF8B80E894E8AEE190
:102B8000B0E08CA39DA3AEA3BFA380E090E0A8EC2F
:102B9000B2E4888F998FAA8FBB8F1C8E1D8E1E8EDC
:102BA0001F8E80E090E0A0E8BFE388A399A3AAA3CA
:102BB000BBA3DF91CF911F910F9108950F931F93A6
:102BC000CF93DF938C01EB0188E2FB0111928A9590
:102BD000E9F74BE050E06AE972EACE010E947D2DF0
:102BE00081E090E0A0E0B0E08C879D87AE87BF8752
:102BF000F80185819681A781B085888B998BAA8BF6
:102C0000BB8B8DE090E0A0E0B0E08C8B9D8BAE8B19
:102C1000BF8B80E894E8AEE1B0E08CA39DA3AEA3A7
:102C2000BFA380E090E0A0EAB2E4888F998FAA8FDA
:102C3000BB8F80E090E0A0EAB1EC8C8F9D8FAE8FCF
:102C4000BF8F80E090E0A0E0B0E488A399A3AAA39E
:102C5000BBA3DF91CF911F910F910895CF92DF9287
:102C6000EF92FF920F93FC01C12CB9E0DB2EBDE384
:102C7000EB2EF12CC082D182E282F3821482158283
:102C800081E090E086839783C0900328D090042849
:102C9000E0900528F0900628F694E794D794C7941E
:102CA00090E04C155D056E057F0540F4F694E794C1
:102CB000D794C7949F5F9630A1F797E0046001878F
:102CC000892F8095A82FA170B0E084E0AA0FBB1FC8
:102CD0008A95E1F791629A2B80E0232B09F480E436
:102CE000982B90870F91FF90EF90DF90CF900895F1
:102CF0000F931F93CF93DF93CDB7DEB72A97CDBF46
:102D0000DEBF8C01FC01878181110CC01086118609
:102D1000128613861486158616861786108A118ADF
:102D200081E087838091E305F8019681892B809368
:102D3000E30561E070E083810E947C0361E070E064
:102D4000F80184810E947C038091C1088460809393
:102D5000C1088091C00881628093C0084091742AA4
:102D60005091752A6091762A7091772A0091782A7D
:102D700020917A2A30917B2ACE0101960E942E164C
:102D800099858A859093C0088093C1082A96CDBF03
:102D9000DEBFDF91CF911F910F910895CF9383E212
:102DA0008093012884E280930228C1E0C093242804
:102DB0008DE18093002861E070E083E20E94AF0221
:102DC00070E060E084E20E947C0361E070E08DE1ED
:102DD0000E947C0361E070E08CE10E94AF0261E040
:102DE00070E08CE10E940F0361E070E083E20E94DA
:102DF000770361E070E08DE10E9477036AE070E0A4
:102E000080E090E00E94440470E060E08DE10E9468
:102E100077036EEE72E080E090E00E94440470E080
:102E200060E08CE10E940F0370E060E08CE10E94A2
:102E3000AF0282E39AE20E947816C0936E29CF9186
:102E400008955F926F927F928F929F92AF92BF92FE
:102E5000CF92DF92EF92FF920F931F93CF93DF9366
:102E6000CDB7DEB76297CDBFDEBF3C010B871C87B5
:102E70002D873E87042F4F87588B698B7A8B298942
:102E80003A894B855C856D857E85CE0101960E94D1
:102E90002E1659841A85D30118968C91882319F01F
:102EA00081FF18C0F8945092C0081093C108629630
:102EB000CDBFDEBFDF91CF911F910F91FF90EF90BB
:102EC000DF90CF90BF90AF909F908F907F906F904A
:102ED0005F90089580FFE7CFF30182849384A484F8
:102EE000B584C12CD12C7601B0E09401A501B601C6
:102EF000C701A0E00E94792BA9F1217030E040E0E9
:102F000050E060E070E080E090E00E94792BE9F012
:102F100090E080E0B03370F48B2F8695869586958F
:102F2000F0E28F9FC0011124805F9B4F2B2F2770F1
:102F3000820F911DFC01408193012B0F311DF9017E
:102F4000428BFC012081287F20839401A501B601DA
:102F5000C70101E00E945E2B49015A016B017C010F
:102F6000BF5FC3CFD3011E968D909D90AD90BC9056
:102F70005197C12CD12C7601B0E29401A501B60184
:102F8000C701A0E00E94792B09F48DCF217030E0B9
:102F900040E050E060E070E080E090E00E94792B3B
:102FA000E9F090E080E0B03370F48B2F8695869541
:102FB0008695E0E28E9FC0011124805F9B4F2B2FEE
:102FC0002770820F911DFC01408193012B0F311D51
:102FD000F901428BFC012081287F20839401A50107
:102FE000B601C70101E00E945E2B49015A016B0145
:102FF0007C01BF5FC2CFCF92DF92EF92FF920F931F
:103000001F93CF93DF93CDB7DEB72897CDBFDEBF39
:1030100080E0082F1D821E8281E0682F12E12AE7DE
:1030200030E040E05E8170E082E39AE20E94211786
:1030300070E060E0809101280E9477030E94740490
:103040006B017C01809102288932B8F00E947404DF
:103050006C197D098E099F096530710581059105FF
:1030600088F32896CDBFDEBFDF91CF911F910F91DE
:10307000FF90EF90DF90CF9008950E945203019748
:1030800081F3E4CFCF92DF92EF92FF920F931F93E1
:10309000CF93DF93CDB7DEB72897CDBFDEBF6C01EE
:1030A000162FF42EE52E2F83088719821A821B8291
:1030B0001C8280916E29811102C00E94CE1680E090
:1030C0000E940A090E94FB1765E08DE20E944509F3
:1030D00040E0612FC6010E948D0940E064E0CE010E
:1030E00001960E948D0982E00E9437098E2D0E9470
:1030F00037098F2D0E94370940E061E0CE01079625
:103100000E948D0941E061E0CE0108960E948D0980
:10311000012F10E0C8014196837099270F5F1F4F60
:10312000892B19F00E94C709F5CF0E94380A81E067
:103130009885943009F080E00E940A090E94FB17EC
:103140001E821D82AE014B5F5F4FBE016A5F7F4FE3
:103150008DE20E94EE090E94380A2896CDBFDEBF9C
:10316000DF91CF911F910F91FF90EF90DF90CF9063
:103170000895CF92DF92EF92FF920F931F93CF9318
:10318000DF9300D000D0CDB7DEB77C0186E08E9D06
:1031900080018F9D100D11240B5D144DF801848169
:1031A0009581892B09F08CC080819181892B59F4FC
:1031B00080E490E00E94852BF801828393838083D2
:1031C00091831482158280E490E089839A8386E05B
:1031D0008E9DF0018F9DF00D1124EB5DF44DC080AC
:1031E000D180EC828CE10E945203892B09F468C0E3
:1031F00080916E29811102C00E94CE1680E00E944B
:103200000A090E94FB1762E085E40E94450940E03C
:1032100061E070E0CE0104960E945C0941E062E04A
:1032200070E0CE0101960E945C090E94C7090E94CD
:10323000380A80E00E940A090E94FB171B820E9444
:10324000D609892B49F1CE0103960E94BD098B81D5
:10325000853C11F50E94C7098823D1F08FEF0E94A9
:103260003709182F8FEF0E943709912F89839A838E
:10327000860129813A81C8018C199D09821793071B
:1032800038F48FEF0E943709F80181938F01F1CF55
:10329000CE0103960E94BD090E94380A89819A8155
:1032A000009771F026E02E9DF0012F9DF00D112466
:1032B000EB5DF44D208131812283338384839583B8
:1032C00086E08E9DF0018F9DF00D1124EB5DF44D95
:1032D000848195812496CDBFDEBFDF91CF911F9170
:1032E0000F91FF90EF90DF90CF900895CF92DF92F3
:1032F000EF92FF920F931F93CF93DF937C016B01AB
:103300008A010E94B9180097F9F0801791070CF410
:103310008C0186E08E9DE0018F9DD00D1124CB5D48
:10332000D44D6A817B81A801C6010E94742D8A81D7
:103330009B81800F911F8A839B838C819D81801B41
:10334000910B8C839D83C801DF91CF911F910F91C9
:10335000FF90EF90DF90CF900895FC01848590E07E
:103360000C9476190F931F93CF93DF931F92CDB7D1
:10337000DEB78C01DC01ED91FC910084F185E02D3C
:103380000995892B91F0F801848541E050E0BE0158
:103390006F5F7F4F90E00E947619898190E00F90D7
:1033A000DF91CF911F910F9108958FEF9FEFF7CF8E
:1033B000CF93DF93FC01C485D0E0CE010E94B91801
:1033C000892B81F086E08C9FF0018D9FF00D1124F8
:1033D000EB5DF44D0280F381E02D808190E0DF9180
:1033E000CF9108958FEF9FEFFACFFC0184858F3F37
:1033F00019F090E00C94B91890E080E008955F9285
:103400006F927F928F929F92AF92BF92CF92DF92F4
:10341000EF92FF920F931F93CF93DF93CDB7DEB759
:103420002897CDBFDEBF888719821A821B821C8233
:103430006A837B834D835E8380916E29811102C0F4
:103440000E94CE1680E00E940A090E94FB1761E0EC
:103450008AE30E94450941E061E0CE0108960E949E
:103460008D090E94C7090E94C7090E94380A80E09E
:103470000E940A090E94FB171F820E94D609892B0D
:10348000E9F1CE0107960E94BD098F818A3BB1F513
:103490000E94C709582E882389F18E010F5F1F4FA4
:1034A000B12CA12C682E712CA614B70404F58FEF53
:1034B0000E943709F8018083F12CE12CC82ED12C11
:1034C000EC14FD0474F4F801818092808E0C9F1C32
:1034D0008FEF0E943709F4018083FFEFEF1AFF0A94
:1034E000EFCF8FEFA81AB80A0D5F1F4FDDCFE2E0D4
:1034F0005E1204C0CE0107960E94BD090E94380AE0
:103500002896CDBFDEBFDF91CF911F910F91FF9025
:10351000EF90DF90CF90BF90AF909F908F907F9073
:103520006F905F900895CF93DF93CDB7DEB7269766
:10353000CDBFDEBF19821A821B821C821D821E82B1
:10354000AE014B5F5F4FBE016F5F7F4FFC01848513
:103550000E94FF198D8190E0982F88272E81820F7D
:10356000911D2696CDBFDEBFDF91CF9108950F93B9
:103570001F93CF93DF93CDB7DEB72697CDBFDEBFC6
:103580008C01FB0119821A821B821C821D821E8201
:10359000AE014B5F5F4FBE016F5F7F4F84850E941E
:1035A000FF1989EC91EAD8018D939C93119752965B
:1035B0001D921C925397F801329680E1DF011D9213
:1035C0008A95E9F789819A81AB81BC81F801868768
:1035D0009787A08BB18BC8012696CDBFDEBFDF9148
:1035E000CF911F910F910895CF93DF9300D0CDB766
:1035F000DEB780916E29811102C00E94CE1680E054
:103600000E940A090E94FB1760E08FE30E944509AF
:103610000E94380A80E00E940A090E94FB178FEF7F
:1036200089831A82AE014E5F5F4FBE016F5F7F4F8D
:103630008FE30E94EE090E94380A89810F900F9053
:10364000DF91CF910895CF92DF92EF92FF920F9387
:10365000CF93DF93EC017B016A018C858F3F39F0BA
:10366000E881F9810488F589E02DCE0109950E9451
:10367000F41A8C878F3F09F442C0F70101900020B3
:10368000E9F73197BF016E197F0904E0282FA601E1
:10369000C7010E9442180E9474046B017C01E881FA
:1036A000F9810688F789E02DCE010995811112C0B4
:1036B0000E9474046C197D098E099F09603177425C
:1036C0008105910538F461E070E080E090E00E94AF
:1036D0004404E5CFE881F9810688F789E02DCE0121
:1036E000099521E090E0811101C020E0822FDF9157
:1036F000CF910F91FF90EF90DF90CF90089561EA06
:1037000072EA87E999E20E94DF0E80E090E0EFCF55
:10371000CF92DF92EF92FF920F93CF93DF93EC0162
:103720007B016A018C858F3F39F0E881F98104883B
:10373000F589E02DCE0109950E94F41A8C878F3F00
:1037400009F442C0F70101900020E9F73197BF0169
:103750006E197F0902E0282FA601C7010E944218B6
:103760000E9474046B017C01E881F9810688F78965
:10377000E02DCE010995811112C00E9474046C19CC
:103780007D098E099F09603177428105910538F4E2
:1037900061E070E080E090E00E944404E5CFE881C1
:1037A000F9810688F789E02DCE01099521E090E0A6
:1037B000811101C020E0822FDF91CF910F91FF9006
:1037C000EF90DF90CF90089561EA72EA87E999E27D
:1037D0000E94DF0E80E090E0EFCFCF92DF92EF9279
:1037E000FF920F931F93CF93DF9300D000D0CDB7FC
:1037F000DEB78C837B018A0180916E29811102C022
:103800000E94CE1680E00E940A090E94FB1762E027
:1038100084E40E94450940E061E070E0CE01049636
:103820000E945C0941E0B801C7010E945C09075F82
:103830001F4FC80183709927892B29F00E94C7095F
:103840000F5F1F4FF6CF0E94380A80E00E940A09DE
:103850000E94FB1719821A821B820E94D609892BAB
:1038600031F1CE0103960E94BD098B81843CF9F4AD
:103870000E94C7098823B9F08FEF0E9437099E0183
:103880002F5F3F4F69018901E82EF12CC8018C1987
:103890009D098E159F053CF48FEF0E943709F801B2
:1038A00081938F01F3CFCE0103960E94BD090E9440
:1038B000380A89819A812496CDBFDEBFDF91CF91EE
:1038C0001F910F91FF90EF90DF90CF900895CF92CE
:1038D000DF92EF92FF920F931F93CF93DF932223F8
:1038E00079F06A017B018C01C5E0D0E0A601B70147
:1038F000F80184850E94ED1B009721F42197B1F710
:1039000090E080E0DF91CF911F910F91FF90EF90B9
:10391000DF90CF900895CF93DF9300D01F92CDB763
:10392000DEB78B8380916E29811102C00E94CE1672
:1039300080E00E940A090E94FB1761E08FE20E946A
:10394000450941E061E0CE0103960E948D090E9485
:10395000C7090E94C7090E94380A80E00E940A092C
:103960000E94FB1719821A82AE014E5F5F4FBE01A3
:103970006F5F7F4F8FE20E94EE090E94380A8981B3
:103980002396CDBFDEBFDF91CF9108950F931F9394
:10399000CF93DF93FC0124852F3F09F1EC010190C7
:1039A000F081E02D0084F185E02D0995892B31F01F
:1039B00081E0DF91CF911F910F9108958C858F3F0A
:1039C00081F40C85F6E00F9F800111240B5D144DEE
:1039D000F80180819181009779F48FEF8C8780E0E6
:1039E000E8CF0E948B1C843060F39BEF980F9330DC
:1039F00040F38A30E9F6E5CF0E94212CF8011282CB
:103A000013821082118214821582E7CFCF93DF9345
:103A100000D01F92CDB7DEB78B8380916E298111C4
:103A200002C00E94CE1680E00E940A090E94FB1785
:103A300061E08EE20E94450941E061E0CE0103961B
:103A40000E948D090E94C7090E94C7090E94380A76
:103A500080E00E940A090E94FB1719821A82AE01B7
:103A60004E5F5F4FBE016F5F7F4F8EE20E94EE0997
:103A70000E94380A2396CDBFDEBFDF91CF91089513
:103A80000F931F93CF93DF93FC0184858F3F69F1E0
:103A90008F010E94061DC2E3D0E0F80184858F3FAC
:103AA00069F00E948B1C882349F0219739F064E665
:103AB00070E080E090E00E944404EFCFF801C485FC
:103AC000F6E0CF9FE0011124CB5DD44D8881998130
:103AD000009741F00E94212C1A821B8218821982C1
:103AE0001C821D828FEFF8018487DF91CF911F9197
:103AF0000F910895FF920F931F93CF93DF93CDB74C
:103B0000DEB72897CDBFDEBF6B837C838D839E831A
:103B1000142FF52E2F83088780916E29811102C002
:103B20000E94CE1680E00E940A090E94FB1764E002
:103B30008DE20E94450940E064E0CE0103960E94B8
:103B40008D0982E00E9437098F2D0E943709812F4D
:103B50000E94370940E061E0CE0107960E948D097E
:103B600041E061E0CE0108960E948D090E94380A6A
:103B700080E00E940A090E94FB1719821A82AE0196
:103B80004E5F5F4FBE016F5F7F4F8DE20E94EE0977
:103B90000E94380A2896CDBFDEBFDF91CF911F91DA
:103BA0000F91FF900895AF92BF92CF92DF92EF9264
:103BB000FF920F93CF93DF93EC017B015A018C8529
:103BC0008F3F39F0E881F9810488F589E02DCE0135
:103BD00009950E94F41A482F8C878F3F09F447C03B
:103BE000F7012289338960E070E0CB01232B21F4B7
:103BF000668577858089918904E0242FA5010E943C
:103C00007A1D0E9474046B017C01E881F9810688A9
:103C1000F789E02DCE010995811112C00E9474042C
:103C20006C197D098E099F096031774281059105E4
:103C300038F461E070E080E090E00E944404E5CF59
:103C4000E881F9810688F789E02DCE01099521E008
:103C500090E0811101C020E0822FDF91CF910F9180
:103C6000FF90EF90DF90CF90BF90AF90089561EA02
:103C700072EA87E999E20E94DF0E80E090E0EDCFE2
:103C8000AF92BF92CF92DF92EF92FF920F93CF93BA
:103C9000DF93EC017B015A018C858F3F39F0E8817D
:103CA000F9810488F589E02DCE0109950E94F41A66
:103CB000482F8C878F3F09F447C0F7012289338949
:103CC00060E070E0CB01232B21F466857785808945
:103CD000918902E0242FA5010E947A1D0E9474049C
:103CE0006B017C01E881F9810688F789E02DCE011E
:103CF0000995811112C00E9474046C197D098E0906
:103D00009F09603177428105910538F461E070E0E8
:103D100080E090E00E944404E5CFE881F9810688C4
:103D2000F789E02DCE01099521E090E0811101C0D5
:103D300020E0822FDF91CF910F91FF90EF90DF90E5
:103D4000CF90BF90AF90089561EA72EA87E999E257
:103D50000E94DF0E80E090E0EDCFAF92BF92CF9255
:103D6000DF92EF92FF920F93CF93DF93EC017B01F1
:103D70005A018C858F3F39F0E881F9810488F589F3
:103D8000E02DCE0109950E94F41A482F8C878F3FB1
:103D900009F447C0F7012289338960E070E0CB0164
:103DA000232B21F4668577858089918900E0242F73
:103DB000A5010E947A1D0E9474046B017C01E881B8
:103DC000F9810688F789E02DCE010995811112C08D
:103DD0000E9474046C197D098E099F096031774235
:103DE0008105910538F461E070E080E090E00E9488
:103DF0004404E5CFE881F9810688F789E02DCE01FA
:103E0000099521E090E0811101C020E0822FDF912F
:103E1000CF910F91FF90EF90DF90CF90BF90AF9038
:103E2000089561EA72EA87E999E20E94DF0E80E074
:103E300090E0EDCFCF92DF92EF92FF920F931F931E
:103E4000CF93DF9300D01F92CDB7DEB76C018B010B
:103E50007A01DC011C968C918F3FA1F481E090E007
:103E6000F6018283938310E000E0C8012396CDBF62
:103E7000DEBFDF91CF911F910F91FF90EF90DF9008
:103E8000CF9008954115510549F30E94ED1B00970D
:103E900009F06AC0D6011F968C911F9781110CC042
:103EA000F60184850E94061D81E090E0D6011296FD
:103EB0008D939C931397D7CFED91FC9102A0F3A122
:103EC000E02D21E0A701B801C60109958C01892BDD
:103ED00039F3F60184858B831A821982F12CE12C47
:103EE00080916E29811102C00E94CE1680E00E944E
:103EF0000A090E94FB1761E08AE20E94450941E03D
:103F000061E0CE0103960E948D090E94C7090E94BC
:103F1000C7090E94380A80E00E940A090E94FB1724
:103F2000AE014F5F5F4FBE016E5F7F4F8AE20E941E
:103F3000EE090E94380A8A81811118C0FFEFEF1A3A
:103F4000FF0A64E670E080E090E00E9444048A8109
:103F5000811104C089E1E816F10410F2A9E1EA1622
:103F6000F10409F47BCF81CF8C01B3CFF12CE12C8C
:103F7000EECF8F929F92AF92BF92CF92DF92EF924D
:103F8000FF920F931F93CF93DF93CDB7DEB7AD971B
:103F9000CDBFDEBF6C014B015A0189EC91EA8D8BDC
:103FA0009E8B1FA218A67E0187E1E80EF11C80E11E
:103FB000D7011D928A95E9F780916E29811102C07F
:103FC0000E94CE1680E00E940A090E94FB1761E061
:103FD00084E30E944509F40101900020E9F731973C
:103FE000BF016819790941E0C4010E948D09F401FB
:103FF00001900020E9F78F01081919090C5F1F4F84
:10400000C80183709927892B29F00E94C7090F5F87
:104010001F4FF6CF0E94380A80E00E940A090E94D2
:10402000FB1719A61982AE014F5F5F4FBE01675D96
:104030007F4F84E30E94EE09182F0E94380A112353
:1040400019F089A5813019F010E000E039C089EC41
:1040500091EA89839A831B8A1C8A4E01F3E08F0EB2
:10406000911C8CE0D4011D928A95E9F78FEF8F8720
:10407000888B898B8A8B80916E29811102C00E9466
:10408000CE1680E00E940A090E94FB1760E085E3DB
:104090000E9445090E94380A80E00E940A090E9495
:1040A000FB171DA6AE01435D5F4FBE01675D7F4FED
:1040B00085E30E94EE098C01892B99F40E94380A4D
:1040C000C801AD96CDBFDEBFDF91CF911F910F919B
:1040D000FF90EF90DF90CF90BF90AF909F908F9028
:1040E00008951FA218A68CE0F70111928A95E9F7AE
:1040F00089A59AA5ABA5BCA58BA39CA3ADA3BEA384
:104100008B899C89892B09F10E94380AD601ED918F
:10411000FC912685378589EC91EA89839A8380E131
:10412000FE017796DE01139601900D928A95E1F7D4
:104130008FA198A58B8B9C8BA501BE016F5F7F4FD4
:10414000C601F90109958C01BBCF40E150E0B701F0
:10415000C4010E94672D892BB9F60E94380A74CFDA
:104160002F923F924F925F926F927F928F929F9287
:10417000AF92BF92CF92DF92EF92FF920F931F9375
:10418000CF93DF93CDB7DEB76C97CDBFDEBF7C0199
:104190006B015A0189012DB73EB72B8F3C8F0E94CE
:1041A000790A882359F0D7011C968D919C91DC01E6
:1041B000ED91FC910488F589E02D0995F70112AA8B
:1041C00013AA17A6E35AFF4F10821182D7011C963B
:1041D0008D919C91DC01ED91FC91A114B10451F100
:1041E0000088F189E02DA801B5010995892BE9F531
:1041F0008EEF9FEFF70185A796A710E000E0C801BA
:10420000EB8DFC8DEDBFFEBF6C96CDBFDEBFDF91A9
:10421000CF911F910F91FF90EF90DF90CF90BF90C3
:10422000AF909F908F907F906F905F904F903F9056
:104230002F9008952685378549EC51EA49835A83A2
:1042400040E1F6013296DE01139601900D924A95F7
:10425000E1F7D60152964D915C914B8B5C8BA80196
:10426000BE016F5F7F4FF901C0CF0E947404F70158
:10427000E05BFF4F60837183828393831D8A1E8A74
:104280001F8A188E198E1A8ED70150966D917C91C7
:1042900051976115710539F054964D915C91CE019D
:1042A00045960E948311698C7A8CF701828C938CDD
:1042B00040A051A09E012F5F3F4F5901611471042E
:1042C00031F50E9474049F938F937F936F9385EBD6
:1042D00092EA9F938F931F9281E18F93BF92AF9247
:1042E0000E948C2DF50101900020E9F73197AF0174
:1042F0004A195B09B501CE0145960E9483118DB71D
:104300009EB70A968DBF9EBF70E1672E712C170174
:104310009EE6290E311CD101CD90DC90BCE0CB0E85
:10432000D11CC60CD71C80E08114910429F0C40173
:104330000296C80ED91E80E84114510431F0806401
:1043400092012E5F3F4FC20ED31EF701EE58FF4F72
:104350009081892BF70192A19111826020E034E0D5
:1043600029833A834091C3A25091C4A26091C5A20F
:104370007091C6A24B835C836D837E8394E09F83A0
:104380008887D70193966D917D918D919C91969799
:1043900028EE33E040E050E00E940D2B922F88275A
:1043A000232F342F452F5527282B392B29873A8740
:1043B000C6010596EDB7FEB7E81BF90BEDBFFEBFD2
:1043C0000DB71EB70F5F1F4F960140E061E0C701B8
:1043D0000E94450F4AE050E0B501C7010E94F10E6E
:1043E0006D897E89A301C7010E94260FD1014D91DD
:1043F0005C914115510541F0F701E459FF4F60818F
:104400007181C7010E94F10E8114910439F0F70106
:1044100066897789A401C7010E94260F41145104BF
:1044200041F0D7015C966D917C91A201C7010E9479
:10443000260FC7010E94840A8C01892BA1F4F70181
:1044400084859585DC01ED91FC910488F589E02D4A
:10445000099583E090E0F70185A796A7CE014596E0
:104460000E94210BCCCE8FEF9FEFD701DC968D936E
:104470009C93DD970E9474044B015C010E947404BC
:10448000681979098A099B09F70107A110A521A5D7
:1044900032A5601771078207930770F4C7010E9465
:1044A000790A882349F0C7010E94C811D701DC9618
:1044B0008D919C91019611F3F70184AD95AD85A77F
:1044C00096A7892B29F481E087A701E010E0C6CFE9
:1044D00084859585DC01ED91FC910488F589E02DBA
:1044E000099510E000E0BACFCF93DF93CDB7DEB7E8
:1044F0006497CDBFDEBF9A0149EC51EA49835A83E4
:104500001B8A1C8AFE0133964CE0DF011D924A95FE
:10451000E9F71F86188A198A1A8AAB01BE016F5FF4
:104520007F4F0E94B0206496CDBFDEBFDF91CF9158
:104530000895CF93DF93CDB7DEB76497CDBFDEBFCD
:1045400029EC31EA29833A8330E1FB013296DE011E
:10455000139601900D923A95E1F7FB012289338978
:104560002B8B3C8B9A0150E040E0BE016F5F7F4F88
:104570000E94B0206496CDBFDEBFDF91CF91089539
:104580001F920F920FB60F9211242F933F934F93C8
:104590005F936F937F938F939F93AF93BF9340915C
:1045A00062295091632960916429709165298091F5
:1045B00060299091612920915E2930915F29420FF5
:1045C000531F611D711D20915C2930915D29820F5F
:1045D000931F883E23E0920730F0885E93404F5F40
:1045E0005F4F6F4F7F4F8093602990936129409375
:1045F000622950936329609364297093652980919F
:104600006A2990916B29A0916C29B0916D2901962E
:10461000A11DB11D80936A2990936B29A0936C29E9
:10462000B0936D2981E08093B60ABF91AF919F91BD
:104630008F917F916F915F914F913F912F910F904B
:104640000FBE0F901F9018951F920F920FB60F92EA
:1046500011242F933F934F935F936F937F938F9387
:104660009F93AF93BF93EF93FF9387E999E20E94E3
:10467000F701FF91EF91BF91AF919F918F917F9142
:104680006F915F914F913F912F910F900FBE0F90BF
:104690001F9018951F920F920FB60F9211242F930F
:1046A0003F934F935F936F937F938F939F93AF93BA
:1046B000BF93EF93FF93E091A329F091A429818107
:1046C00081FD2FC060818091A9298F5F8F739091A8
:1046D000AA29891741F0E091A929F0E0E956F64DA1
:1046E000618F8093A9298091302A9091312A009777
:1046F00039F0DC01ED91FC910190F081E02D0995FC
:10470000FF91EF91BF91AF919F918F917F916F91A9
:104710005F914F913F912F910F900FBE0F901F907F
:1047200018958081EDCF1F920F920FB60F92112432
:104730002F933F934F935F936F937F938F939F93A9
:10474000AF93BF93CF93EF93FF93C091AB08C2FF9A
:104750000AC010923F2910923E2910923D2984E010
:104760000E94BD0614C0C6FF2FC080913C29813035
:1047700051F480913F29E0913A29F0913B2990E052
:10478000099510923C29C0FF14C00E94CD06FF91EC
:10479000EF91CF91BF91AF919F918F917F916F9149
:1047A0005F914F913F912F910F900FBE0F901F90EF
:1047B000189580E48093AB0881E00E94BD0680914B
:1047C000AB0885FFE4CFE1CFC7FF5CC0C3FF08C0E3
:1047D00010923F2910923E2910923D2983E0C0CFCC
:1047E0008091A90880668093A9088091AB0881FF19
:1047F0002CC080913E29882349F08091AB0884FF2A
:1048000005C082E08093AA0881E0AACF90913E295A
:1048100080913D299817A8F4E0913E29809135298F
:1048200090913629E80FF92FF11D80818093AD0812
:1048300080913E298F5F80933E2983E08093AA0870
:10484000A6CF82E08093AA088BCF90913F298091D8
:104850003929981790F48091AD08E0913F29209173
:10486000372930913829E20FF32FF11D8083809191
:104870003F298F5F80933F29E0CF86E08093AA088D
:1048800082E06ECF85E06CCF1F920F920FB60F9231
:1048900011242F933F938F939F93EF93FF938091D6
:1048A000A508982F9C70E1F08091A50894E082FF04
:1048B00093E090934A298093A50881E090E080934B
:1048C00040299093412910924B29FF91EF919F919C
:1048D0008F913F912F910F900FBE0F901F901895C1
:1048E00086FF4EC020914729909146298091A508C6
:1048F00084FF15C080914329882379F083E0809359
:10490000A40885E080934A2910924B2981E090E029
:104910008093402990934129D8CF81E0F0CF8091B6
:104920004529821790F4E09145298091482990917A
:104930004929E80FF92FF11D80818093A808809103
:1049400045298F5F80934529C0CF809144298917DD
:1049500060F484E090E08093402990934129809115
:10496000422981608093A708B0CF80914329882392
:1049700029F083E08093A40881E0C4CF81E0FACFDE
:1049800087FF40C090914429809146299817D8F418
:104990008091A808E091442920913329309134294D
:1049A000E20FF32FF11D8083809144298F5F809364
:1049B000442990914629809144298917D8F482E0AE
:1049C0008093A40882CF80914329882389F087E0CF
:1049D0008093A40882E080934A2910924B2981E0B9
:1049E00090E08093402990934129109246296DCF01
:1049F00085E0EECF80914329882311F087E0BACF7C
:104A000085E0B8CF86E07ECFFC0110821182128251
:104A100013821482158250E040E069E972EA0C9436
:104A20008311FF920F931F93CF93DF93E3E8F9E293
:104A300089EC91EA8083918321E030E0228B338BF3
:104A4000E5E8F9E240E1DF011D924A95E9F7EFE67A
:104A5000F9E280839183128A138AA1E7B9E28CE09C
:104A6000ED0119928A95E9F716861786108A118A40
:104A7000E7E9F9E21282138288EE93E0A0E0B0E069
:104A800084839583A683B7834FEC51EA4083518397
:104A900040E658E0448755874AE146874BE147871F
:104AA00040E4408B128A138A148A158A46E2468BA8
:104AB000178A108E1092302A1092312AE4E7FAE217
:104AC00040E059E06DE370E040835183628373837B
:104AD0001482158226833783E2E3FAE229EE31EA73
:104AE000208331831782FF24F394F68221E222830C
:104AF00022E2248320E2238326E1258302E81AE2CE
:104B0000F8011282138284839583A683B78327E0FA
:104B100032EA20833183E5E2FBE22CE3EF011992D4
:104B20002A95E9F7ECE7FAE240E553EC60E070E043
:104B3000408351836283738314821582EEE8FAE224
:104B40001282138284839583A683B7832DE632EA8B
:104B5000208331832FEF2487F786CEE9DAE21A82A9
:104B60001B828C839D83AE83BF838BE492EA888310
:104B70009983EC87FD871E861F868EEA9AE20E9443
:104B8000042584EB9AE20E9404258AEB9AE20E94B3
:104B90000425FAA280E69AEEA0E0B0E08BA39CA3E5
:104BA000ADA3BEA380E395E7A0E0B0E08FA398A7F4
:104BB000A9A7BAA780E890E08BA79CA71DA61EA670
:104BC0001FA618AA19AA1AAA1BAA8CED9AE20E947B
:104BD000042582EF9AE20E9404251092FF2A109287
:104BE000002B1092022B1092032B1092042B109288
:104BF000052B10920A2B10920B2B10920C2B10925B
:104C00000D2B10920E2B10920F2B1092102B1C823A
:104C10001D821E821F82C1E1DBE28DE392EA88835E
:104C20009983CB83DC838FEF9FEFDC018D839E83A1
:104C3000AF83B8872FE232EA29873A87CC87DD87AE
:104C40008E879F87A88BB98B86E090E00E94852B8A
:104C5000FC018CE5808301831283138280E290E063
:104C600084839583EA8BFB8BDF91CF911F910F910A
:104C7000FF900895CF93DF9300D0CDB7DEB788EDD6
:104C800090E084BF9093610080E094E2A4EFB0E0F4
:104C90008093032890930428A0930528B0930628B6
:104CA00080910206866080930206809100068160F2
:104CB00080930006809102068F7C8093020680918B
:104CC000A0008F788093A00080910206806180937D
:104CD00002061092E20581E08093E40583E0809370
:104CE000010A8FEF90E08093260A9093270A80E8CC
:104CF00090E08093380A9093390A80933A0A90930F
:104D00003B0A80933C0A90933D0A8BE08093000A13
:104D10008091E50581608093E5058091E5058260DD
:104D20008093E505E0E8FAE037E02FEF90E885E0D2
:104D300031832487958780837096E03C4AE0F407AE
:104D4000B9F780E094E08093682990936929809175
:104D50006829909169292FEF30E0B9010E94F92A62
:104D600060936629709367298091682990916929D9
:104D7000E8EEF3E0BF010E94F92A60935E29709388
:104D80005F298091682990916929BF010E94F92AC1
:104D900080935C2990935D292093BC0A3093BD0ACF
:104DA0008091B50A81608093B50A84E08093B00A4F
:104DB0008091B00A81608093B00A789461E070E0DD
:104DC0008CE10E94AF0261E070E08CE10E940F0371
:104DD00061E070E08DE10E94AF0261E070E08DE182
:104DE0000E940F0361E070E083E20E94AF0261E085
:104DF00070E083E20E940F0361E070E08EE10E94A8
:104E0000AF0261E070E08EE10E940F0340E855E2DE
:104E100060E070E087E999E20E94060B88EC92EA74
:104E20000E94C50E62E178E287E999E20E94DF0EF6
:104E300087E0C82E88E2D82E92E1A92E98E2B92EFA
:104E400099249A94F60101900020E9F78F01085007
:104E50001842F50101900020E9F7CF0183519842F3
:104E60007C0180916E29811102C00E94CE1680E0E3
:104E70000E940A090E94FB1762E081E10E94450935
:104E800040E06E2D82E198E20E948D0941E0602FA2
:104E900087E098E20E948D09FF2496E0E90EF11C5C
:104EA000E00EF11CC70183709927892B31F00E9415
:104EB000C709AFEFEA1AFA0AF5CF0E94380A80E074
:104EC0000E940A090E94FB171A821982AE014F5FE5
:104ED0005F4FBE016E5F7F4F81E10E94EE09892B1B
:104EE00009F49A820E94380A8A818F3F59F48CEE25
:104EF00092EA0E94C50E68E873E180E090E00E94AB
:104F00004404A0CF0E9474042B013C010E9474044D
:104F1000641975098609970900917C2A10917D2AE8
:104F200020917E2A30917F2A6017710782079307AC
:104F3000F0F6E091802AF091812A309709F00995E6
:104F400064E670E080E090E00E94440480916E2965
:104F5000811102C00E94CE1680E00E940A090E94C0
:104F6000FB1760E080E20E9445090E94380A80E059
:104F70000E940A090E94FB179A821982AE014F5FB4
:104F80005F4FBE016E5F7F4F80E20E94EE090E947C
:104F9000380A8A81833008F4B9CF833009F0A7CF6B
:104FA0006EEE72EA87E999E20E94DF0E87E999E2E4
:104FB0000E94CA0E8EE093EA0E94C50E63E171EA78
:104FC00087E999E20E94DF0E4BE557E063E171EA61
:104FD0008EE99AE20E947422892B59F489E393EABC
:104FE0000E94C50E8091CB2A9091CC2A0E94CE0EB1
:104FF000FFCF6FE573EA87E999E20E94DF0E87E948
:1050000099E20E94CA0E0091232B1091242BF801E3
:1050100081819281DC01ED91FC910684F785E02D80
:10502000099581E0F80183838091232B9091242BB3
:105030000E94D6086AE070E080E090E00E9444049C
:105040008091232B9091242B0E94D60800E010E041
:105050008EE99AE20E94C8110E9474046B017C01DF
:105060008091582990915929A0915A29B0915B2992
:10507000A7019601281B390B4A0B5B0BDA01C9010A
:1050800088399A43A105B10508F40AC14BE557E0F8
:1050900063E171EA8EE99AE20E9474225C01892B35
:1050A00061F489E393EA0E94C50E8091CB2A909126
:1050B000CC2A0E94CE0EF50109956FE573EA87E9C7
:1050C00099E20E94DF0E0E947404AB01BC012AE049
:1050D00087E999E20E94280D87E999E20E94CA0EA9
:1050E00087E999E20E94CA0EC0925829D0925929A4
:1050F000E0925A29F0925B298EE00E94F903809396
:105100005629909357298FE00E94F90380935429E0
:105110009093552980E10E94F9038093522990933E
:10512000532981E10E94F9038093502990935129DA
:1051300060E081E19BE20E94750B8F3F980709F4C4
:10514000B6C0BC0190E080E00E94782920E030E009
:1051500040E251E40E94512A0E94C32A60934E29E2
:1051600070934F2981E19BE20E94690C0E94C32A3F
:1051700060934C2970934D2984E893EA0E94C50EF0
:1051800080915629909157290E94CE0E8DEF90EA7A
:105190000E94AC1160915629709157298EE99AE2CC
:1051A0000E946E0D0E94C71481E993EA0E94C50E09
:1051B00080915429909155290E94CE0E87EE90EA55
:1051C0000E94AC1160915429709155298EE99AE2A0
:1051D0000E946E0D0E94C7148EE993EA0E94C50ECC
:1051E00080915229909153290E94CE0E81ED90EA30
:1051F0000E94AC1160915229709153298EE99AE274
:105200000E946E0D0E94C7148BEA93EA0E94C50E9D
:1052100080915029909151290E94CE0E8BEB90EAFB
:105220000E94AC1160915029709151298EE99AE247
:105230000E946E0D0E94C71488EB93EA0E94C50E6F
:1052400080914E2990914F290E94CE0E86EA90EAD5
:105250000E94AC1160914E2970914F298EE99AE21B
:105260000E946E0D0E94C71483EC93EA0E94C50E43
:1052700080914C2990914D290E94CE0E8EE890EAA3
:105280000E94AC1160914C2970914D298EE99AE2EF
:105290000E946E0D0E94C71487E999E20E94CA0E0F
:1052A0000115110509F4D4CE0E940000D1CE60E0B2
:1052B00070E080EC9FE750CFCF93DF938EE99AE2C6
:1052C0000E942F0BC5E2DBE288819981009741F0B3
:1052D0000E94212C1A821B82188219821C821D8234
:1052E00026968BE2C136D80779F7DF91CF910895E2
:1052F000E89409C097FB3EF4909580957095619570
:105300007F4F8F4F9F4F9923A9F0F92F96E9BB2725
:105310009395F695879577956795B795F111F8CFA1
:10532000FAF4BB0F11F460FF1BC06F5F7F4F8F4F0C
:105330009F4F16C0882311F096E911C0772321F002
:105340009EE8872F762F05C0662371F096E8862F9A
:1053500070E060E02AF09A95660F771F881FDAF7F1
:10536000880F9695879597F9089597F99F6780E834
:1053700070E060E008959FEF80EC089500240A94A7
:105380001616170618060906089500240A94121620
:105390001306140605060895092E0394000C11F453
:1053A000882352F0BB0F40F4BF2B11F460FF04C000
:1053B0006F5F7F4F8F4F9F4F089557FD9058440F59
:1053C000551F59F05F3F71F04795880F97FB991F64
:1053D00061F09F3F79F08795089512161306140621
:1053E000551FF2CF4695F1DF08C0161617061806AE
:1053F000991FF1CF86957105610508940895E89489
:10540000BB2766277727CB0197F908950E94422A88
:10541000A59F900DB49F900DA49F800D911D112408
:1054200008952F923F924F925F926F927F928F9248
:105430009F92AF92BF92CF92DF92EF92FF920F9323
:105440001F93CF93DF93CDB7DEB7CA1BDB0BCDBF66
:10545000DEBF09942A88398848885F846E847D84F9
:105460008C849B84AA84B984C884DF80EE80FD800C
:105470000C811B81AA81B981CE0FD11DCDBFDEBFAA
:10548000ED010895A29FB001B39FC001A39F700DCD
:10549000811D1124911DB29F700D811D1124911D3C
:1054A00008950E94652A0C94CC290E94C52958F0C1
:1054B0000E94BE2940F029F45F3F29F00C94B529E1
:1054C00051110C94002A0C94BB290E94DD2968F329
:1054D0009923B1F3552391F3951B550BBB27AA27AD
:1054E00062177307840738F09F5F5F4F220F331FE7
:1054F000441FAA1FA9F335D00E2E3AF0E0E832D0AF
:1055000091505040E695001CCAF72BD0FE2F29D0B1
:10551000660F771F881FBB1F261737074807AB0783
:10552000B0E809F0BB0B802DBF01FF2793585F4FF8
:105530003AF09E3F510578F00C94B5290C94002A5E
:105540005F3FE4F3983ED4F3869577956795B795DA
:10555000F7959F5FC9F7880F911D9695879597F9E5
:105560000895E1E0660F771F881FBB1F621773075E
:105570008407BA0720F0621B730B840BBA0BEE1F73
:1055800088F7E09508950E94CA2A6894B1110C9496
:10559000002A08950E94E52988F09F5798F0B92FB6
:1055A0009927B751B0F0E1F0660F771F881F991F58
:1055B0001AF0BA95C9F714C0B13091F00E94FF29D2
:1055C000B1E008950C94FF29672F782F8827B85FE2
:1055D00039F0B93FCCF3869577956795B395D9F7B0
:1055E0003EF490958095709561957F4F8F4F9F4FBA
:1055F0000895AA1BBB1B51E107C0AA1FBB1FA6171A
:10560000B70710F0A61BB70B881F991F5A95A9F76B
:1056100080959095BC01CD010895A1E21A2EAA1B98
:10562000BB1BFD010DC0AA1FBB1FEE1FFF1FA21752
:10563000B307E407F50720F0A21BB30BE40BF50B4F
:10564000661F771F881F991F1A9469F760957095D8
:10565000809590959B01AC01BD01CF010895052E69
:1056600097FB1EF400940E94462B57FD07D00E9422
:105670000D2B07FC03D04EF40C94462B509540950F
:10568000309521953F4F4F4F5F4F089590958095EE
:10569000709561957F4F8F4F9F4F0895EE0FFF1FBD
:1056A0000590F491E02D0994B7FF0C94062A0E940E
:1056B000062A821B930B089597FD1094002E083044
:1056C00098F00850232F342F452F562F672F782F0F
:1056D000892F912DF4CF1594979587957795679598
:1056E00057954795379527950A95AAF71124002DC8
:1056F00008950024A7FD00942A17300540055005A1
:10570000600570058005900508950F931F93CF9352
:10571000DF938230910510F482E090E0E091632BFA
:10572000F091642B30E020E0B0E0A0E0309799F4F5
:105730002115310509F44AC0281B390B24303105E5
:10574000D8F58A819B816115710589F1FB018283FE
:105750009383FE0111C0408151810281138148175A
:105760005907E0F04817590799F4109761F012961D
:105770000C93129713961C933296CF01DF91CF9121
:105780001F910F9108950093632B1093642BF4CF16
:105790002115310551F04217530738F0A901DB01FB
:1057A0009A01BD01DF01F801C1CFEF01F9CF80936C
:1057B000632B9093642BCDCFFE01E20FF31F8193F7
:1057C00091932250310928833983D7CF2091612BBF
:1057D0003091622B232B41F420911F2830912028F7
:1057E0002093612B3093622B20911D2830911E282D
:1057F0002115310541F42DB73EB740912128509134
:105800002228241B350BE091612BF091622BE217CB
:10581000F307A0F42E1B3F0B2817390778F0AC01D3
:105820004E5F5F4F2417350748F04E0F5F1F4093C0
:10583000612B5093622B819391939FCFF0E0E0E036
:105840009CCFCF93DF930097E9F0FC01329712824F
:105850001382A091632BB091642BED0130E020E026
:105860001097A1F420813181820F931F2091612B29
:105870003091622B2817390709F061C0E093612B42
:10588000F093622BDF91CF910895EA01CE17DF07E5
:10589000E8F54A815B819E0141155105B1F7E901A7
:1058A000EA83FB8349915991C40FD51FEC17FD077B
:1058B00061F4808191810296840F951FE9018883AC
:1058C0009983828193818A839B83F0E0E0E0129642
:1058D0008D919C9113970097B9F52D913C9111975B
:1058E000CD010296820F931F2091612B3091622B84
:1058F0002817390739F6309751F51092632B10921B
:10590000642BA093612BB093622BBCCFC283D38353
:1059100040815181840F951FC817D90761F44E5FEC
:105920005F4F88819981480F591F408351838A8135
:105930009B81828393832115310509F0B0CFE093D9
:10594000632BF093642B9ECFFD01DC01C0CF12824C
:105950001382D7CFB0E0A0E0E0EBFCE20C94132A76
:105960008C01009751F4CB010E94852B8C01C8015A
:10597000CDB7DEB7E0E10C942C2AFC01E60FF71F4F
:105980009C0122503109E217F30708F49DC0D901A8
:10599000CD91DC911197C617D70798F0C530D10586
:1059A00030F3CE0104978617970708F3C61BD70B71
:1059B0002297C193D1936D937C93CF010E94212CA8
:1059C000D6CF5B01AC1ABD0A4C018C0E9D1EA09176
:1059D000632BB091642B512C412CF12CE12C1097AE
:1059E00031F58091612B9091622B8815990509F012
:1059F0005CC04616570608F058C080911D2890914B
:105A00001E28009741F48DB79EB7409121285091F0
:105A10002228841B950BE817F90708F055C0E0937E
:105A2000612BF093622BF90160837183A0CF8D917C
:105A30009C91119712966C90129713967C901397E5
:105A4000A815B90559F56C0142E0C40ED11CCA1461
:105A5000DB0420F1AC014A195B09DA0112961597B3
:105A600080F06282738240835183D9016D937C936D
:105A7000E114F10471F0D7011296ED93FC931397A2
:105A800076CF22968C0F9D1FF90180839183F301BD
:105A9000EFCFE093632BF093642B69CF4816590640
:105AA00008F42C017D01D3019ACFCB010E94852BF4
:105AB0007C01009749F0AE01B8010E94742DC80125
:105AC0000E94212C870153CF10E000E050CFFB0152
:105AD000DC0104C08D910190801921F441505040A7
:105AE000C8F7881B990B0895FB01DC0102C00190E7
:105AF0000D9241505040D8F70895FB01DC01415010
:105B0000504048F001900D920020C9F701C01D924D
:105B100041505040E0F70895AEE0B0E0E2E9FDE228
:105B20000C941F2A0D891E898F89988D26E02C835D
:105B300009831A8397FF02C080E090E801978D8364
:105B40009E83AE01455E5F4F698D7A8DCE010196D1
:105B50000E94BC2D4D815E8157FD0AC02F81388582
:105B6000421753070CF49A01020F131FF801108219
:105B70002E96E4E00C94382AABE0B0E0E2ECFDE2D3
:105B80000C94112A7C013B018A01FC0116821782C8
:105B9000838181FFC8C1CE0101965C01F701938129
:105BA000F30193FD859193FF81913F01882309F4CF
:105BB00053C1853239F493FD859193FF81913F0163
